:02000000DB28FB
:10000800FF00030E8301AE000A08AF008A01051A3B
:100018002C288B1C2C288B10081D1E28081108144E
:10002800881108161030A2000030A3001830A8006C
:100038000030A900881E2C288812881508108814FA
:100048001830A8000030A9001030A2000030A3002A
:0E0058002F088A002E0E8300FF0E7F0E090077
:0E0066008312031321088A002008820008007C
:10007400710DF80DF90D7408F8027508031C750F5D
:10008400F902F00DF10D0F30FC00710DF80DF90DB2
:100094007408701C5328F8027508031C750FF902C4
:1000A4005828F80775080318750FF907F00DF10DB6
:1000B400FC0B4728701864287408F807750803189F
:0800C400750FF90700000800A8
:1000CC00831203137408003A031D75287508003A4F
:1000DC00031D7528FF30F0007F30F100CE2883120D
:1000EC000313FD01F901F8017108700403190034C0
:1000FC0071087506FA00FA1BFD09FB01F51F8B2828
:10010C00F409F509F40A0319F50AF11F9228F0090C
:10011C00F109F00A0319F10A71087504FA00FA1BC7
:10012C00A7283A207B18BA28FD1F0034F009F109E2
:10013C00F00A0319F10AF809F909F80A0319F90A7E
:10014C000034F51FB628F11BB2287108F9007008AD
:10015C00F800F101F0019A28F101F001F00A0034E5
:10016C00F109F009FB0A9728F80A0319F90A74082F
:10017C007802031D9A2875087902031D9A28F90143
:10018C00F801F00A0319F10AF11F9A280000FF3454
:02019C00080059
:10019E0033208A110A128000840AA00A0319A10AC8
:0801AE00F003031DCF28080037
:1001B600831603130516061487018B170B160117F2
:1001C600831287018316880110308312A200003043
:1001D600A3001830A8000030A900C03088000F30F6
:1001E600AA000030AB0080302B06F0008030700291
:1001F600031DFF2800302A02031C79290130A202C0
:10020600031CA30300302B06031D0B290F302A06FF
:10021600031D0F298815881400302B06031D152988
:100226000C302A06031D19298810081500302306EC
:10023600031D1F290C302206031D2B2908192B2903
:10024600081E272908128816881C2B2988100815CD
:100256000A30F4000030F5002A08F0002B08F100FF
:1002660066207008AC007108AD000A30F40000305A
:10027600F5002A08F0002B08F10066207808F00047
:100286007908F1007008A6007108A700A401A5016D
:100296008030F000803025067002031D54292408A2
:1002A600323C031C742908138817260887001A3065
:1002B600FC00F830FD00FD0B5E29FC0B5E290000FA
:1002C600081788132C0887001A30FC00F830FD0048
:1002D600FD0B6B29FC0B6B290000A40A0319A50A68
:1002E6004B290130AA02031CAB03F628C030880054
:1002F6001730AA000030AB0080302B06F0008030AB
:100306007002031D882900302A02031C022A0130CC
:10031600A802031CA90300302B06031D94291730DD
:100326002A06031D98290814081600302B06031DFB
:100336009E2914302A06031DA229081288160030A9
:100346002906031DA82914302806031DB429881A76
:10035600B429081EB02908128816881CB4298810EA
:1003660008150A30F4000030F5002A08F0002B08C2
:10037600F10066207008AC007108AD000A30F40088
:100386000030F5002A08F0002B08F10066207808F6
:10039600F0007908F1007008A6007108A700A40112
:1003A600A5018030F000803025067002031DDD298E
:1003B6002408323C031CFD290813881726088700E9
:1003C6001A30FC00F830FD00FD0BE729FC0BE7298D
:1003D6000000081788132C0887001A30FC00F83034
:1003E600FD00FD0BF429FC0BF4290000A40A0319F7
:1003F600A50AD4290130AA02031CAB037F29F028E1
:02040600032AC7
:02400E004A2F37
:00000001FF
